:1000000080313628080008007E1480310B1F092833
:100010000A2834282100101F0E280F281828200035
:10002000101F1328142818288D31E1258031342819
:100030002100911D1C281D2826282000911D212803
:10004000222826288C31F524803134282100901D67
:100050002A282B2834282000901D2F2830283428C7
:100060008C31F924803134287E1009008031382801
:10007000713084008D308500643086000030870048
:1000800007308D31412580316F3084008E308500FE
:10009000A03086000030870018308D314125803136
:1000A000F601F701F801F9015230840000308500B3
:1000B00012308D313B258031B8308400003085000E
:1000C00017308D313B2580317E1020008F31542F29
:1000D0002000D00088294E088600870101082100F1
:1000E000C40020004E08860087010108CF000230BE
:1000F000CF35FF3E031D78284F35A03E860087018F
:1001000001082100C500C4302000A0000230A10079
:100110000C30863178268031AB294E088600870165
:1001200001088531FE25803120004E0886008701B8
:1001300001082100C40020004E0886008701010844
:10014000CF000230CF35FF3E031DA2284F35A13E20
:1001500086008701403FA000413FA100C530A200BA
:100160008D31BD258031C4302000A0000330A100B6
:100170000D30863178268031AB294E088600870104
:1001800001088231F422803120004E088600870168
:1001900001082100C40020004E08860087010108E4
:1001A000CF000230CF35FF3E031DD2284F35A33E8E
:1001B0008600870101082100C50020004E08860046
:1001C00087010108CF000230CF35FF3E031DE42830
:1001D0004F35A43E86008701403FA000413FA1006B
:1001E000423FA200433FA300C630A4008431B8249C
:1001F0008031C4302000A0000630A1000E308631CE
:1002000078268031AB298731BF27803120006508EF
:100210002100C400C4302000A000A101A10A0F30B9
:10022000863178268031AB298531C0258031023076
:10023000643E86008701403F2000A000413FA100AE
:10024000423FA200433FA300C430A4008431B8243D
:100250008031C4302000A0000430A100103086316D
:1002600078268031AB298F31D227803120006A086F
:100270002100C400C4302000A000A101A10A123056
:10028000863178268031AB294E0886008701413FB0
:10029000F4004E088600870101088631B4268031BB
:1002A000AB294E088600870101088F31062780316F
:1002B000AB294E0883317E23803120002308B00013
:1002C0002208AF002108AE002008AD0087315C276E
:1002D0008031AB294E088600870101088F312C2719
:1002E0008031AB294E0883317E23803120002308E2
:1002F000B0002208AF002108AE002008AD004E0873
:10030000043E860087010108853180258031AB29B4
:100310005008013A03194429033A03196B28013A9A
:1003200003198D28073A0319BD28013A0319032937
:10033000033A03191429013A031951290F3A0319F1
:100340005929013A03196A29033A031972291B3AF8
:1003500003193329AB2908002000A8004A2A2803E2
:10036000031DB329B429BA292100B801B80ABE0176
:10037000BA01622A02308D3190258131622A280823
:100380002100B900BF01BF0A0230B800E529BF0152
:10039000BC01BB010330B800622ABF01BC01BC0A2A
:1003A000BB01BB0A622A0230BC000230BB00622AD9
:1003B0000430BC000430BB00622A0530BC000530AC
:1003C000BB00622A2100B801622A3908013A0319E8
:1003D000D329033A0319CD29013A0319CD29073A44
:1003E0000319CD29013A0319C729033A0319C7296B
:1003F000013A0319CE290F3A0319D829013A0319F2
:10040000CD29033A0319DD291B3A0319C729E2292B
:1004100021003A08CA3E8600870120002808810092
:100420002808A60026082100BE0701302000A600EB
:1004300026082100BA070130BB023B08031D212A10
:10044000222A622ACA2928082100BD00B8013E08D4
:100450003D06031D2C2A2D2A402A3F080319312A64
:10046000322A3E2ACA302000A00021003C08200089
:10047000A100210039088631782681310130632AB4
:1004800001308D3190258131622A02308D319025E5
:100490008131E229210038082000A600A7012708A1
:1004A000003A0319542A452A2608003A0319AF29AD
:1004B000013A0319BF29033A0319082A013A03191B
:1004C000232A452A003008002000B501AF1F692A01
:1004D0006A2A772AAC09AD09AE09AF09AC0A03193B
:1004E000AD0A0319AE0A0319AF0AB501B50AB31F65
:1004F0007A2A7B2A8A2AB009B109B209B309B00A5B
:100500000319B10A0319B20A0319B30A0130F4003E
:100510007408B5060030B9000030B8000030B700EC
:100520000030B6002F082E042D042C040319992A3C
:100530009A2ADB2AB401B40AA82A0130AC35AD0DE1
:10054000AE0DAF0D890B9E2A0130F4007408B4077C
:10055000AF1FAB2AAC2A9D2A0130B635B70DB80DB6
:10056000B90D890BAD2A2F083302031DC12A2E08AD
:100570003202031DC12A2D083102031DC12A2C0895
:100580003002031CC42AC52ACE2A2C08B0022D082A
:10059000B13B2E08B23B2F08B33B36140130AF36C7
:1005A000AE0CAD0CAC0C890BCF2A0130B402031D8C
:1005B000DA2ADB2AAC2A35080319DF2AE02AEB2ADB
:1005C000B609B709B809B909B60A0319B70A031970
:1005D000B80A0319B90A3908AF003808AE0037085D
:1005E000AD003608AC0008002000CA006A2B0130BC
:1005F00084312124823120002108C9002008C8004C
:100600004908BB004808BA008531402582312000E6
:100610004A08C6000230C635FF3E031D0B2B463587
:10062000A43E860087013A08C03F3B08C13F3C0812
:10063000C23F3D08C33F4A08C6000230C635FF3EF0
:10064000031D1E2B4635A33E86008701FF30810027
:100650007D2B0A3084312124823120002108C900F9
:100660002008C8004908BB004808BA008531402569
:10067000823120004A08C6000230C635FF3E031D05
:100680003D2B4635A43E860087013A08C03F3B0813
:10069000C13F3C08C23F3D08C33F003084312124A4
:1006A000823120002108C9002008C8004A08C6007D
:1006B0000230C635FF3E031D592B4635A33E86004A
:1006C00087014908BB004808BA0086313B268231C1
:1006D00081007D2B4A08C600C7014708003A03196C
:1006E000722B7D2B4608003A03197D2B013A031922
:1006F000F72A033A0319292B7D2B08002000AC00B0
:100700002C08860087010108A400A501A601A70105
:100710001830A435A50DA60DA70D890B892B270828
:10072000AB002608AA002508A9002408A8002C0A66
:10073000860087010108A400A501A601A7011030C9
:10074000A435A50DA60DA70D890BA02B2408A80480
:100750002508A9042608AA042708AB042C08023E91
:10076000860087010108A400A501A601A7010830A1
:10077000A435A50DA60DA70D890BB82B2408A80438
:100780002508A9042608AA042708AB042C08033E60
:10079000860087010108A8042B08A3002A08A200EC
:1007A0002908A1002808A000080020003A08C0007D
:1007B0003B08C100C201C3010030AF000030AE00F1
:1007C0001030AD000030AC004308A3004208A20086
:1007D0004108A1004008A0000030A7000030A6009A
:1007E0000130A500AC30A4008731282783312000D8
:1007F0002308B3002208B2002108B1002008B0008D
:10080000823164228331A0302000BC000030BD0062
:100810000030BE000030BF002C08BC022D08BD3BDC
:100820002E08BE3B2F08BF3B3F08C7003E08C6004E
:100830003D08C5003C08C4004508BB004408BA0098
:1008400008002000A400A501A60124088D31B125CF
:1008500084318C31DA2484310B302000A2006230E4
:10086000890B302CA20B302C00002000A7018D3109
:100870006A258431003A03193E2C3F2C582C013054
:100880002000A2002208A7078D312F25843174088B
:100890002000A5077508A63D8C31DA2484310B3081
:1008A0002000A2006230890B532CA20B532C0000B5
:1008B000203020002702031C5E2C5F2C372C2608DA
:1008C000A3002508A2000530A336A20C890B642CD6
:1008D0002208A0002308A100080022008C0160303B
:1008E0008D008E013F3021008C00F0308D003B30B8
:1008F0008E00173023008C0010308D000D308E00DC
:100900002C3024008C00E0308D00F7308E00210068
:10091000951325008C018D018E01373026008C0047
:10092000F0308D00FF308E003F3027008C00F0301B
:100930008D00FF308E0011303C00A40006303D00D9
:10094000A2000E303C00A00010303D009E000D3093
:100950003C00A10011303D009D0027009101920153
:10096000930194019501960197019801990108005E
:10097000200024088600870120088100240A8600C0
:1009800087012008A5002108A6002208A700230847
:10099000A8000830A836A70CA60CA50C890BCA2CF9
:1009A000250881002408023E860087012008A50052
:1009B0002108A6002208A7002308A8001030A836A6
:1009C000A70CA60CA50C890BDF2C25088100240898
:1009D000033E860087012008A5002108A600220802
:1009E000A7002308A8001830A836A70CA60CA50C51
:1009F000890BF42C2508810008008C31C524843132
:100A00008D3155258431003A0319072D082D162DF7
:100A10008D3129258431003A03190F2D102D162D03
:100A200005302000DD000130DC002B2D8D310E253E
:100A30008431003A03191D2D1E2D2B2D8D312925B2
:100A40008431003A0319252D262D2B2D0530200049
:100A5000DD000230DC0020005D08F200F301F23519
:100A6000F30D0130720784000830733D8038850033
:100A7000013F8A00003F0A0085312000DD000800A8
:100A800020003A08BE003B08BF00C001C101003091
:100A9000AF000030AE002830AD000030AC0041089F
:100AA000A3004008A2003F08A1003E08A0000030BB
:100AB000A7000030A6000130A500AE30A4008731A9
:100AC0002827853120002308B3002208B20021081E
:100AD000B1002008B00082316422853120002F0847
:100AE000C5002E08C4002D08C3002C08C20045080C
:100AF000BD004408BC004308BB004208BA0008001F
:100B00002000B8000130B8023808B1000130B1351A
:100B1000FF3E031D872D3135043EB7003808B30072
:100B20003008A3002F08A2002E08A1002D08A00065
:100B30003330A4008431B824853120006408B1002A
:100B4000B2013108A0003208A1003730A200013004
:100B5000A3000030A4008E31A42685312000640853
:100B6000B100B2013108A0003208A1003330A20068
:100B70000430A3000030A4008E31A4268531080083
:100B80002000B3010030B2000030B1000030B000EE
:100B90000030AF006408AD00AE012D08A0002E08A3
:100BA000A1003330A2000130A3000030A4008E3138
:100BB000A426853120006408AD00AE012D08A000F8
:100BC0002E08A1002F30A2000430A3000030A400A2
:100BD0008E31E4268531003A0319EF2DF02DFD2DDD
:100BE0002F3083317E23853120002308E90022083D
:100BF000E8002108E7002008E60008002000CD00FA
:100C0000072E0330CC001A2E0730CC001A2E4D08C8
:100C1000C800C9014908003A03190F2E1A2E4808C6
:100C2000003A03191A2E013A0319012E033A031947
:100C3000042E1A2E4C0884312124853120002108ED
:100C4000CB002008CA004B08BB004A08BA00833119
:100C5000D523853120004D08C8000230C835FF3E3D
:100C6000031D2E2E4835A13E860087013A08C03F5D
:100C70003B08C13F080020003A08BC003B08BD000B
:100C8000BE01BF010030AF000030AE00A030AD00AB
:100C90000030AC003F08A3003E08A2003D08A100C0
:100CA0003C08A0000030A7000030A6003730A500A7
:100CB000EF30A40087312827863120002308B300B5
:100CC0002208B2002108B1002008B000823164225D
:100CD0008631223020002C07C00000302D3DC1009D
:100CE00000302E3DC20000302F3DC30040080800F8
:100CF0002000A400A30101308E310E268631200091
:100D000024088E310E2686310B3020002406031D68
:100D10008A2E8B2E932E20088600870101088E31A3
:100D20000E268631B32E2108031D972E982E992E5C
:100D3000AF2E20088600870101088E310E268631ED
:100D400020002008860087010108A2002208A307CE
:100D50000130A2002208A0070130A102932E23082F
:100D60008E310E2686310800F500CC2E7408031D46
:100D7000BA2EBB2EBE2E22008E17E02E22008E131E
:100D8000E02E7408031DC52EC62EC92E22000E1794
:100D9000E02E22000E13E02E75082000A000A10115
:100DA0002108003A0319D52EE02E2008003A031935
:100DB000E02E013A0319B62E033A0319C12EE02E94
:100DC00075082000A0000230A035FF3E031DE42E70
:100DD0002035A03E86008701740881000800043099
:100DE000F1008C31E9248631003A0319F82EF92EEE
:100DF000232F200059085A040319FF2E002F102F0B
:100E00005808860087018C31CB248631810001305F
:100E1000F00070082000D8070130D9020030DA3B1A
:100E200059085A040319152F162F1A2F8C31E5244F
:100E30008631262F8C31D12486318C31ED248631B8
:100E40000730F100262F8C31CE248631710808003E
:100E500000302000AB000030AA000030A9000030B4
:100E6000A800201C342F352F3D2F2408A807250863
:100E7000A93D2608AA3D2708AB3D0130A435A50DA4
:100E8000A60DA70D890B3E2F0130A336A20CA10C95
:100E9000A00C890B452F2308220421042004031DE4
:100EA000522F532F312F2B08A3002A08A200290804
:100EB000A1002808A00008002000B701B70A3008E8
:100EC000A3002F08A2002E08A1002D08A000333097
:100ED000A4008431B824873120006408B100B20135
:100EE0003108A0003208A1003730A2000130A30071
:100EF0000030A4008E31A426873120006408B100A0
:100F0000B2013108A0003208A1003330A200043041
:100F1000A3000030A4008E31A42687310800873456
:100F20000E34003400347C340F3401340D34133467
:100F30000D34EF340D340034003400340034003408
:100F40000034003400340034003400340034003401
:100F500000340034003400340034003400340034F1
:100F600000340034003400340034003400349B3446
:100F70000D34C9340D340034003400340034FF30F3
:100F80002000A700A8016408A500A6012508A0006C
:100F90002608A1002730A2000130A3000030A400E1
:100FA0008E31A426873120006408A500A6012508FB
:100FB000A0002608A1002830A2000130A3000030C4
:100FC000A4008E31E4268731003A0319E82FE92F77
:100FD000EC2F20002808E500080059340E340034B6
:100FE0000034A4340E34E4340E34003400340034BD
:100FF000003400340034FE340D34D5340D34003464
:101000000034F1340C3478340D3447340D34A634C4
:101010000F34EF3406341D340D3423340D34803452
:061020000D344E340D34C6
:101982000800200091110800200090110800240096
:1019920016150800240011080800240096150800F6
:1019A200240096100800240096140800240016143F
:1019B200080021009D1408002400951295160800C5
:1019C2002400951315130800240096121616080019
:1019D200240014080139080024009616161608007F
:1019E2002000D201083008008E31C2268C31080056
:1019F2008431FD248C31080023001D121D160800BD
:101A0200740823009A00080021009015911508001F
:101A1200F00070082400910008002400140E890CC4
:101A2200013908002000100E890C013908007508E0
:101A3200F9007408F80008008D3180258D31F0001E
:101A4200700808008D314E258D31F00070080800B5
:101A52002400160E890C890C0139080021001C088B
:101A6200F5001B08F400080075082000EC0074085B
:101A7200EB000800640080010131890B3C2D003429
:101A8200FE0012001E00FE0B422D003420005335D2
:101A92008D3109258D31033008008C31DD248D31E3
:101AA2002000D2010030080003102400941E031409
:101AB2000030093D08008C31D7248D3102302000DE
:101AC200DD0008008C31D7248D3101302000DD008B
:101AD2000800031021009D1C03140030093D08007A
:101AE2005134003400340034003400340034031420
:101AF2002000530D8D3109258D31043008008C31C1
:101B0200C8248D318E311F268D31003008007A3085
:101B1200210099002200960121009801080020006E
:101B2200A5002530A000A101A10A0B30863178263C
:101B32008D310800740875040319A02DA12DA52D5F
:101B42007508F7007408F60008008B1021001517BD
:101B52000030F4000030F5008D3118258D31080079
:101B6200F5007508F400F40DF40D21001D0874064B
:101B7200833974069D000800200022088600870130
:101B820020088100220A86008701210881000800BE
:101B9200740875040319CE2DCF2DD42D750820009D
:101BA200DF007408DE000800740875040319DA2DDA
:101BB200DB2DE02D75082000E3007408E200080028
:101BC200200010136B086C040319E82DE92DEE2D8B
:101BD2006C088A006B080A008D310800F4012000AD
:101BE200101EF42DF52DFC2D23009E1EF92DFA2D2D
:101BF200FC2DF401F40A74080800F401F40A200030
:101C02005208031D052E062E0C2E240094190A2EAE
:101C12000B2E0C2EF40174080800F500112E0000A2
:101C22008D31EF258E31003A0319182E192E102E00
:101C32007508F4008D3101258E3108002000D20193
:101C42000030D400FF30D300D501D801DD018C3142
:101C5200C5248E318C31C2248E318C31E1248E31F7
:101C620008008D3188258E3184316D248E318E317C
:101C720045268E318E3187268E318E3159268E3110
:101C82008D31A6258E310800603021009E009B0117
:101C92009C019F0101309D0020001013C130F4000F
:101CA2000C30F5008D3135258E31210010170800DA
:101CB2008030240094000830950096019701273067
:101CC20092008D3105258E310230F4000030F5008E
:101CD2008D31D5258E31240095160800013400344B
:101CE2000034003400340034003400340134003451
:101CF2000034003400340034003400340134003441
:101D020000340034003400340034003448302300FE
:101D12009F0090309D0026309E00A0309B00013035
:101D22009C000330F4000030F5008D319B258E318C
:101D3200FD30F4000C30F5008D31C9258E312000C4
:101D4200E001E10108008D31FE258E31003A031DCC
:101D5200AB2EAC2EC12E01302000D2002108D400BF
:101D62002008D300DB012208D5002408D70023086D
:101D7200D600D801D901DA01DC018D315C258E3122
:101D8200080006302000DD000330DC008C31C22464
:101D92008E3120005D08F200F301F235F30D0130BF
:101DA200720784000830733D80388500013F8A0045
:101DB200003F0A008E312000DD0063088A006208BD
:101DC2000A008E310800F5018D31FE258E31003A70
:101DD200031DEC2EED2E042F01302000D20021082D
:101DE200D4002008D300DB012208D8002408DA003E
:101DF2002308D900D501D601D701DC018D31632535
:101E02008E31F501F50A750808002000A700FE30A2
:101E1200A8006408A500A6012508A0002608A100C4
:101E22002830A2000130A3000030A4008E31A42685
:101E32008F3120006408A500A6012508A00026080D
:101E4200A1002730A2000130A3000030A4008E318F
:101E5200A4268F3108002000A7000230A80027081E
:101E6200A9006408A500A6012508A0002608A10073
:101E72002830A2000130A3000030A4008E31A42635
:101E82008F3120006408A500A6012508A0002608BD
:101E9200A1002930A2000130A3000030A4008E313D
:101EA200A4268F3108008E3132268F318B170B1703
:101EB2008D3113258F31003A0319602F612F782F4E
:101EC2008F317C278F312000D10051088131AC2124
:101ED2008F31003A03196E2F6F2F592FCA3020000D
:101EE200CE0021003908803168208F31592F00003F
:101EF200592F803136282000E001E10123009D1C8A
:101F0200832F842F912F200060155E085F04031930
:101F12008B2F8C2F912F5F088A005E080A008F3169
:101F220023001D1D952F962FA32F2000E014760865
:101F3200770403199D2F9E2FA32F77088A00760816
:101F42000A008F31230019080800200056085704A0
:101F52000319AC2FAD2FC02F0130D6020030D73B72
:101F62000330523E86008701403F84008501810A8A
:101F720000088D3109258F310330F100D02F5B0825
:101F82000319C42FC52FCC2FDB018C31D4248F3100
:101F9200F101F10AD02F8D3180258F31F1007108C6
:101FA2000800FE302000A700A8016408A500A601D1
:101FB2002508A0002608A1002730A2000130A300B6
:101FC2000030A4008E31A4268F3120006408A500C1
:101FD200A6012508A0002608A1002830A200013091
:101FE200A3000030A4008E31E4268F31003A031999
:0E1FF200FB2FFC2FFF2F20002808EA0008001C
:020000040001F9
:06000E00FC3FFF3E9F3F96
:00000001FF
