:1000000080313628080008007E1480310B1F092833
:100010000A2834282100101F0E280F281828200035
:10002000101F1328142818288E31142680313428E4
:100030002100911D1C281D2826282000911D212803
:10004000222826288D312825803134282100901D32
:100050002A282B2834282000901D2F2830283428C7
:100060008D312C25803134287E10090080313828CC
:10007000A43084008D308500663086000030870013
:1000800007308D3174258031A13084008E30850099
:10009000A03086000030870018308D317425803103
:1000A000F601F701F801F9015230840000308500B3
:1000B00014308D316E258031B830840000308500D9
:1000C00015308D316E2580317E1020008F31392F13
:1000D0002000D00088294E088600870101082100F1
:1000E000C20020004E08860087010108CF000230C0
:1000F000CF35FF3E031D78284F35A03E860087018F
:1001000001082100C300C2302000A0000230A1007D
:100110000C308631D3268031AB294E08860087010A
:1001200001088531AE25803120004E088600870108
:1001300001082100C20020004E0886008701010846
:10014000CF000230CF35FF3E031DA2284F35A13E20
:1001500086008701403FA000413FA100C330A200BC
:100160008D31F0258031C2302000A0000330A10085
:100170000D308631D3268031AB294E0886008701A9
:1001800001088231F022803120004E08860087016C
:1001900001082100C20020004E08860087010108E6
:1001A000CF000230CF35FF3E031DD2284F35A33E8E
:1001B0008600870101082100C30020004E08860048
:1001C00087010108CF000230CF35FF3E031DE42830
:1001D0004F35A43E86008701403FA000413FA1006B
:1001E000423FA200433FA300C430A40084316824EE
:1001F0008031C2302000A0000630A1000E308631D0
:10020000D3268031AB2987319F27803120006708B2
:100210002100C200C2302000A000A101A10A0F30BD
:100220008631D3268031AB2985317025803102306B
:10023000663E86008701403F2000A000413FA100AC
:10024000423FA200433FA300C230A400843168248F
:100250008031C2302000A0000430A100103086316F
:10026000D3268031AB298731CD27803120006C081F
:100270002100C200C2302000A000A101A10A12305A
:100280008631D3268031AB294E0886008701413F55
:10029000F4004E0886008701010886312826803147
:1002A000AB294E088600870101088F315E27803117
:1002B000AB294E0883317A23803120002308B00017
:1002C0002208AF002108AE002008AD0087313C278E
:1002D0008031AB294E088600870101088F318427C1
:1002E0008031AB294E0883317A23803120002308E6
:1002F000B0002208AF002108AE002008AD004E0873
:10030000043E860087010108853130258031AB2904
:100310005008013A03194429033A03196B28013A9A
:1003200003198D28073A0319BD28013A0319032937
:10033000033A03191429013A031951290F3A0319F1
:100340005929013A03196A29033A031972291B3AF8
:1003500003193329AB2908002000A800482A2803E4
:10036000031DB329B429B929DE01DE0AE401E00145
:100370005E2A02308D31C32581315E2A2808DF00D4
:10038000E501E50AEB29E501E201E1010330DE00C8
:100390005E2AE201E20AE101E10A0230DE005E2AA1
:1003A000E501E201E20AE101E10ACD290230E200C1
:1003B0000230E1000230DE005E2A0430E200043048
:1003C000E1000230DE005E2A0530E2000530E10087
:1003D0000230DE005E2A5F08013A0319D629033A8B
:1003E0000319D029013A0319D029073A0319D02952
:1003F000013A0319C329033A0319C329013A03191E
:10040000C9290F3A0319DD29013A0319D029033A02
:100410000319E4291B3A0319C3295E2A6008C83E60
:1004200086008701280881002808A6002608E4071E
:100430000130A6002608E0070130E1026108031D33
:10044000222A232A5E2AC6292808E300DE0164083E
:100450006306031D2C2A2D2A3C2A65080319312A1C
:10046000322A3A2AC830A0006208A1005F0886310B
:10047000D326813101305F2A01308D31C32581318E
:100480005E2A02308D31C32581312000DE015E2AD3
:100490005E08A600A7012708003A0319502A412A3E
:1004A0002608003A0319AF29013A0319BE29033A75
:1004B00003190E2A013A0319242A412A00300800A0
:1004C0002000B501AF1F652A662A732AAC09AD0961
:1004D000AE09AF09AC0A0319AD0A0319AE0A031934
:1004E000AF0AB501B50AB31F762A772A862AB00962
:1004F000B109B209B309B00A0319B10A0319B20A62
:100500000319B30A0130F4007408B5060030B900CD
:100510000030B8000030B7000030B6002F082E04BD
:100520002D042C040319952A962AD72AB401B40A5B
:10053000A42A0130AC35AD0DAE0DAF0D890B9A2A52
:100540000130F4007408B407AF1FA72AA82A992A1B
:100550000130B635B70DB80DB90D890BA92A2F0892
:100560003302031DBD2A2E083202031DBD2A2D08A9
:100570003102031DBD2A2C083002031CC02AC12AE7
:10058000CA2A2C08B0022D08B13B2E08B23B2F0816
:10059000B33B36140130AF36AE0CAD0CAC0C890B4E
:1005A000CB2A0130B402031DD62AD72AA82A35083F
:1005B0000319DB2ADC2AE72AB609B709B809B90901
:1005C000B60A0319B70A0319B80A0319B90A390890
:1005D000AF003808AE003708AD003608AC000800A0
:1005E0002000CA00662B013086319C268231200013
:1005F0002108C9002008C8004908BB004808BA0003
:100600008431F024823120004A08C6000230C63509
:10061000FF3E031D072B4635A43E860087013A089E
:10062000C03F3B08C13F3C08C23F3D08C33F4A08AA
:10063000C6000230C635FF3E031D1A2B4635A33EC9
:1006400086008701FF308100792B0A3086319C2695
:10065000823120002108C9002008C8004908BB00D9
:100660004808BA008431F024823120004A08C600CC
:100670000230C635FF3E031D392B4635A43E8600A9
:1006800087013A08C03F3B08C13F3C08C23F3D08D4
:10069000C33F003086319C26823120002108C900EA
:1006A0002008C8004A08C6000230C635FF3E031DB8
:1006B000552B4635A33E860087014908BB004808F4
:1006C000BA008531EB2582318100792B4A08C600BA
:1006D000C7014708003A03196E2B792B4608003AE8
:1006E0000319792B013A0319F32A033A0319252B2D
:1006F000792B08002000AC002C0886008701010837
:10070000A400A501A601A7011830A435A50DA60DCA
:10071000A70D890B852B2708AB002608AA00250802
:10072000A9002408A8002C0A860087010108A4005B
:10073000A501A601A7011030A435A50DA60DA70D92
:10074000890B9C2B2408A8042508A9042608AA04C0
:100750002708AB042C08023E860087010108A4008C
:10076000A501A601A7010830A435A50DA60DA70D6A
:10077000890BB42B2408A8042508A9042608AA0478
:100780002708AB042C08033E860087010108A80453
:100790002B08A3002A08A2002908A1002808A0000D
:1007A000080020003A08C0003B08C100C201C30194
:1007B000FF30AF00FF30AE00A030AD000030AC0025
:1007C0004308A3004208A2004108A1004008A0007D
:1007D000FF30A700FF30A6009C30A500CE30A4005B
:1007E00087310827833120002308B3002208B20094
:1007F0002108B1002008B000823160228331A0308E
:100800002000BC000030BD000030BE000030BF0042
:100810002C08BC022D08BD3B2E08BE3B2F08BF3B59
:100820003F08C7003E08C6003D08C5003C08C4009C
:100830004508BB004408BA00080022008C01603063
:100840008D008E013F3021008C00F0308D003B3058
:100850008E00173023008C0010308D000D308E007C
:100860002C3024008C00E0308D00F7308E00210009
:10087000951325008C018D018E01373026008C00E8
:10088000F0308D00FF308E003F3027008C00F030BC
:100890008D00FF308E0011303C00A40006303D007A
:1008A000A2000E303C00A00010303D009E000D3034
:1008B0003C00A10011303D009D00270091019201F4
:1008C00093019401950196019701980199010800FF
:1008D000200024088600870120088100240A860061
:1008E00087012008A5002108A6002208A7002308E8
:1008F000A8000830A836A70CA60CA50C890B7A2CEA
:10090000250881002408023E860087012008A500F2
:100910002108A6002208A7002308A8001030A83646
:10092000A70CA60CA50C890B8F2C25088100240888
:10093000033E860087012008A5002108A6002208A2
:10094000A7002308A8001830A836A70CA60CA50CF1
:10095000890BA42C2508810008008C31F8248431EF
:100960008D3188258431003A0319B72CB82CC62C58
:100970008D315C258431003A0319BF2CC02CC62C64
:1009800005302000DD000130DC00DB2C8D314125FD
:100990008431003A0319CD2CCE2CDB2C8D315C2513
:1009A0008431003A0319D52CD62CDB2C05302000DD
:1009B000DD000230DC0020005D08F200F301F235BA
:1009C000F30D0F30720784000830733D80388500C6
:1009D000013F8A00003F0A0084312000DD0008004A
:1009E00020003A08BE003B08BF00C001C101003032
:1009F000AF000030AE002830AD000030AC00410840
:100A0000A3004008A2003F08A1003E08A00000305B
:100A1000A7000030A6000130A500AE30A400873149
:100A20000827843120002308B3002208B2002108DF
:100A3000B1002008B00082316022843120002F08EC
:100A4000C5002E08C4002D08C3002C08C2004508AC
:100A5000BD004408BC004308BB004208BA000800BF
:100A60002000B9000130B9023908B1000130B135B8
:100A7000FF3E031D372D3135043EB8003908B30061
:100A80003008A3002F08A2002E08A1002D08A00006
:100A90003430A40084316824853120006608B10018
:100AA000B2013108A0003208A1003830A2000130A4
:100AB000A3000030A4008E31D626853120006608C0
:100AC000B100B2013108A0003208A1003330A20009
:100AD0000530A3000030A4008E31D62685310800F1
:100AE0002000B3010030B2000030B1000030B0008F
:100AF0000030AF006608AD00AE012D08A0002E0842
:100B0000A1003330A2000130A3000030A4008E31D8
:100B1000D626853120006608AD00AE012D08A00064
:100B20002E08A1002F30A2000430A3000030A40042
:100B30008E31F4268531003A03199F2DA02DAD2D5D
:100B40002F3083317A23853120002308EB002208DF
:100B5000EA002108E9002008E80008002000CD0094
:100B6000B72D0330CC00CA2D0730CC00CA2D4D085C
:100B7000C800C9014908003A0319BF2DCA2D480809
:100B8000003A0319CA2D013A0319B12D033A03198A
:100B9000B42DCA2D4C0886319C26853120002108B1
:100BA000CB002008CA004B08BB004A08BA008331BA
:100BB000D123853120004D08C8000230C835FF3EE2
:100BC000031DDE2D4835A13E860087013A08C03F4F
:100BD0003B08C13F080020003A08BC003B08BD00AC
:100BE000BE01BF010030AF000030AE00A030AD004C
:100BF0000030AC003F08A3003E08A2003D08A10061
:100C00003C08A0000030A7000030A6003730A50047
:100C1000EF30A40087310827853120002308B30076
:100C20002208B2002108B1002008B0008231602201
:100C30008531223020002C07C00000302D3DC1003E
:100C400000302E3DC20000302F3DC3004008080098
:100C5000F500402E7408031D2E2E2F2E322E22005A
:100C60008E17542E22008E13542E7408031D392E15
:100C70003A2E3D2E22000E17542E22000E13542E13
:100C800075082000A000A1012108003A0319492E8F
:100C9000542E2008003A0319542E013A03192A2E23
:100CA000033A0319352E542E75082000A000023097
:100CB000A035FF3E031D582E2035A03E860087013B
:100CC0007408810008000430F1008D311C25863144
:100CD000003A03196C2E6D2E972E200059085A04E5
:100CE0000319732E742E842E5808860087018C31C8
:100CF000FE24863181000130F00070082000D80702
:100D00000130D9020030DA3B59085A040319892E00
:100D10008A2E8E2E8D31182586319A2E8D310425FE
:100D200086318D31202586310730F1009A2E8D31A4
:100D300001258631710808002000A400A501A60144
:100D40008D310D258631200024088D31E425863132
:100D50002000A7018D319D258631003A0319B12E5F
:100D6000B22EBA2E8D316225863174082000A50777
:100D70007508A63D01302000A2002208A7072030F8
:100D80002702031CC42EC52EAA2E2608A300250860
:100D9000A2000530A336A20C890BCA2E2208A0009F
:100DA0002308A10008002000A400A30101308E3117
:100DB00032268631200024088E31322686310B30CF
:100DC00020002406031DE52EE62EE72E072F21081E
:100DD000031DEB2EEC2EED2E032F2008860087013D
:100DE00001088E31322686312000200886008701D6
:100DF0000108A2002208A3070130A2002208A007D0
:100E00000130A102E72E23088E31322686310800F8
:100E100000302000AB000030AA000030A9000030F4
:100E2000A800201C142F152F1D2F2408A807250803
:100E3000A93D2608AA3D2708AB3D0130A435A50DE4
:100E4000A60DA70D890B1E2F0130A336A20CA10CF5
:100E5000A00C890B252F2308220421042004031D44
:100E6000322F332F112F2B08A3002A08A2002908A4
:100E7000A1002808A00008002000B701B70A300828
:100E8000A3002F08A2002E08A1002D08A0003330D7
:100E9000A40084316824873120006608B100B201C3
:100EA0003108A0003208A1003730A2000130A300B1
:100EB0000030A4008E31D626873120006608B100AC
:100EC000B2013108A0003208A1003330A200043082
:100ED000A3000030A4008E31D62687310800B93433
:100EE0000E3400340034AA340F3434340D34463414
:100EF0000D3423340E340034003400340034003414
:100F00000034003400340034003400340034003441
:100F10000034003400340034003400340034003431
:100F20000034003400340034003400340034CE3453
:100F30000D34FC340D340034003400340034FF3000
:100F40002000A700A8016608A500A6012508A000AA
:100F50002608A1002730A2000130A3000030A40021
:100F60008E31D626873120006608A500A601250807
:100F7000A0002608A1002830A2000130A300003004
:100F8000A4008E31F4268731003A0319C82FC92FE7
:100F9000CC2F20002808E7000800FE302000A70022
:100FA000A8016608A500A6012508A0002608A10042
:100FB0002730A2000130A3000030A4008E31D626D5
:100FC000873120006608A500A6012508A000260894
:100FD000A1002830A2000130A3000030A4008E310F
:100FE000F4268731003A0319F62FF72FFA2F200045
:100FF0002808EC0008008B340E3400340034D6345A
:101000000E34F4340E340034003400340034003430
:10101000003441340E3408340E34003400342434A7
:101020000D34AB340D347A340D34D4340F3463348E
:10103000063450340D3456340D34B3340D34813409
:021040000D346D
:1019E8000800200091110800200090110800240030
:1019F8001615080024001108080024009615080090
:101A080024009610080024009614080024001614D8
:101A1800080021009D14080024009512951608005E
:101A280024009513151308002400961216160800B2
:101A38002400140801390800240096161616080018
:101A48002000D201083008008F3116278D31080098
:101A58008431AD248D31080023001D121D160800A5
:101A6800740823009A0008002100901591150800B9
:101A7800F00070082400910008002400140E890C5E
:101A8800013908002000100E890C0139080075087A
:101A9800F9007408F80008008D31B3258D31F00085
:101AA800700808008D3181258D31F000700808001C
:101AB8002400160E890C890C0139080021001C0825
:101AC800F5001B08F400080075082100CE00740812
:101AD800CD000800640080010131890B6F2D0034AE
:101AE800FE0012001E00FE0B752D00342000533539
:101AF8008D313C258D31033008008D3110258D3115
:101B08002000D2010030080003102400941E0314A2
:101B18000030093D08008D310A258D310230200042
:101B2800DD0008008D310A258D3101302000DD00EF
:101B38000800031021009D1C03140030093D080013
:101B480051340034003400340034003400340314B9
:101B58002000530D8D313C258D31043008008C3127
:101B6800FB248D318E3151268D31003008007A30BA
:101B78002100990022009601210098010800200008
:101B8800A5002530A000A101A10A0B308631D3267B
:101B98008D310800740875040319D32DD42DD82D60
:101BA8007508F7007408F60008008B102100151757
:101BB8000030F4000030F5008D314B258D310800E0
:101BC800F5007508F400F40DF40D21001D087406E5
:101BD800833974069D0008002000220886008701CA
:101BE80020088100220A8600870121088100080058
:101BF800740875040319012E022E072E750821009A
:101C0800BD007408BC0008007408750403190D2E83
:101C18000E2E132E75082100C1007408C00008009C
:101C28002000101321004D084E0403191C2E1D2EF0
:101C3800222E4E088A004D080A008E310800F40151
:101C48002000101E282E292E302E23009E1E2D2EF9
:101C58002E2E302EF401F40A74080800F5008E3197
:101C680023268E31003A03193A2E3B2E332E75085F
:101C7800F4008D3134258E310800F401F40A200077
:101C88005208031D482E492E4F2E240094194D2E1C
:101C98004E2E4F2EF401740808002000D2010030A7
:101CA800D400FF30D300D501D801DD018C31F824F0
:101CB8008E318C31F5248E318D3114258E3108000A
:101CC8008D31BB258E3184311D248E318E3177269E
:101CD8008E318E31B9268E318E318B268E318D31F3
:101CE800D9258E310800603021009E009B019C019F
:101CF8009F0101309D0020001013F430F4000C30D7
:101D0800F5008D3168258E312100101708008030CC
:101D1800240094000830950096019701273092001E
:101D28008D3138258E310230F4000030F5008E31C7
:101D380008268E312400951608000134003400343A
:101D480000340034003400340034013400340034EA
:101D580000340034003400340034013400340034DA
:101D680000340034003400340034483023009F002D
:101D780090309D0026309E00A0309B0001309C00D2
:101D88000330F4000030F5008D31CE258E3130302F
:101D9800F4000D30F5008D31FC258E312100BE0197
:101DA800BF0108008E3141268E31003A031DDD2E19
:101DB800DE2EF32E01302000D2002108D4002008A6
:101DC800D300DB012208D5002408D7002308D60059
:101DD800D801D901DA01DC018D318F258E31080057
:101DE800F5018E3141268E31003A031DFC2EFD2E61
:101DF800142F01302000D2002108D4002008D3007D
:101E0800DB012208D8002408DA002308D900D5010C
:101E1800D601D701DC018D3196258E31F501F50A01
:101E28007508080006302000DD000330DC008C3126
:101E3800F5248F3120005D08F200F301F235F30D2F
:101E48000F30720784000830733D80388500013FE9
:101E58008A00003F0A008F312000DD002100410880
:101E68008A0040080A008F3108008E3164268F31BD
:101E78008B170B178D3146258F31003A0319452FE3
:101E8800462F3E2F8F31AA278F312000D1005108CD
:101E98008131AC218F31003A0319532F542F3E2F33
:101EA800C8302000CE005F08803168208F313E2F77
:101EB800803136282000A700FE30A8006608A5005B
:101EC800A6012508A0002608A1002830A20001309C
:101ED800A3000030A4008E31D6268F31200066087A
:101EE800A500A6012508A0002608A1002730A20009
:101EF8000130A3000030A4008E31D6268F310800AF
:101F08002000A7000230A8006608A500A601250841
:101F1800A0002608A1002830A2000130A30000304C
:101F2800A4008E31D6268F3120006608A500A601B0
:101F38002508A0002608A1002730A2000130A30030
:101F48000030A4008E31D6268F3108002100BE0152
:101F5800BF0123009D1CB12FB22FBF2F21003E15BA
:101F68003C083D040319B92FBA2FBF2F3D088A003A
:101F78003C080A008F3123001D1DC32FC42FD12F09
:101F88002100BE14760877040319CB2FCC2FD12F4C
:101F980077088A0076080A008F312300190808009C
:101FA8002000560857040319DA2FDB2FEE2F0130D3
:101FB800D6020030D73B0330523E86008701403FAF
:101FC80084008501810A00088D313C258F3103305A
:101FD800F100FE2F5B080319F22FF32FFA2FDB0114
:101FE8008D3107258F31F101F10AFE2F8D31B3258F
:081FF8008F31F10071080800AF
:020000040001F9
:06000E00FC3FFF3E9F3F96
:00000001FF
