:1000000080313628080008007E1480310B1F092833
:100010000A2834282100101F0E280F281828200035
:10002000101F1328142818288E31032680313428F5
:100030002100911D1C281D2826282000911D212803
:10004000222826288D311725803134282100901D43
:100050002A282B2834282000901D2F2830283428C7
:100060008D311B25803134287E10090080313828DD
:10007000933084008D308500643086000030870026
:1000800007308D3163258031913084008E308500BA
:10009000A03086000030870018308D316325803114
:1000A000F601F701F801F9015230840000308500B3
:1000B00012308D315D258031B830840000308500EC
:1000C00017308D315D2580317E1020008F31542F07
:1000D0002000D00088294E088600870101082100F1
:1000E000C40020004E08860087010108CF000230BE
:1000F000CF35FF3E031D78284F35A03E860087018F
:1001000001082100C500C4302000A0000230A10079
:100110000C3086312C268031AB294E0886008701B1
:1001200001088531B225803120004E088600870104
:1001300001082100C40020004E0886008701010844
:10014000CF000230CF35FF3E031DA2284F35A13E20
:1001500086008701403FA000413FA100C530A200BA
:100160008D31DF258031C4302000A0000330A10094
:100170000D3086312C268031AB294E088600870150
:1001800001088231F422803120004E088600870168
:1001900001082100C40020004E08860087010108E4
:1001A000CF000230CF35FF3E031DD2284F35A33E8E
:1001B0008600870101082100C50020004E08860046
:1001C00087010108CF000230CF35FF3E031DE42830
:1001D0004F35A43E86008701403FA000413FA1006B
:1001E000423FA200433FA300C630A40084316C24E8
:1001F0008031C4302000A0000630A1000E308631CE
:100200002C268031AB298731AE278031200065084C
:100210002100C400C4302000A000A101A10A0F30B9
:1002200086312C268031AB2985317425803102300E
:10023000643E86008701403F2000A000413FA100AE
:10024000423FA200433FA300C430A40084316C2489
:100250008031C4302000A0000430A100103086316D
:100260002C268031AB298F31D227803120006A08BB
:100270002100C400C4302000A000A101A10A123056
:1002800086312C268031AB294E0886008701413FFC
:10029000F4004E0886008701010886316826803107
:1002A000AB294E088600870101088F31062780316F
:1002B000AB294E0883317E23803120002308B00013
:1002C0002208AF002108AE002008AD0087314B277F
:1002D0008031AB294E088600870101088F312C2719
:1002E0008031AB294E0883317E23803120002308E2
:1002F000B0002208AF002108AE002008AD004E0873
:10030000043E860087010108853134258031AB2900
:100310005008013A03194429033A03196B28013A9A
:1003200003198D28073A0319BD28013A0319032937
:10033000033A03191429013A031951290F3A0319F1
:100340005929013A03196A29033A031972291B3AF8
:1003500003193329AB2908002000A8004A2A2803E2
:10036000031DB329B429BA292100B801B80ABE0176
:10037000BA01622A02308D31B2258131622A280801
:100380002100B900BF01BF0A0230B800E529BF0152
:10039000BC01BB010330B800622ABF01BC01BC0A2A
:1003A000BB01BB0A622A0230BC000230BB00622AD9
:1003B0000430BC000430BB00622A0530BC000530AC
:1003C000BB00622A2100B801622A3908013A0319E8
:1003D000D329033A0319CD29013A0319CD29073A44
:1003E0000319CD29013A0319C729033A0319C7296B
:1003F000013A0319CE290F3A0319D829013A0319F2
:10040000CD29033A0319DD291B3A0319C729E2292B
:1004100021003A08CA3E8600870120002808810092
:100420002808A60026082100BE0701302000A600EB
:1004300026082100BA070130BB023B08031D212A10
:10044000222A622ACA2928082100BD00B8013E08D4
:100450003D06031D2C2A2D2A402A3F080319312A64
:10046000322A3E2ACA302000A00021003C08200089
:10047000A1002100390886312C2681310130632A00
:1004800001308D31B2258131622A02308D31B225A1
:100490008131E229210038082000A600A7012708A1
:1004A000003A0319542A452A2608003A0319AF29AD
:1004B000013A0319BF29033A0319082A013A03191B
:1004C000232A452A003008002000B501AF1F692A01
:1004D0006A2A772AAC09AD09AE09AF09AC0A03193B
:1004E000AD0A0319AE0A0319AF0AB501B50AB31F65
:1004F0007A2A7B2A8A2AB009B109B209B309B00A5B
:100500000319B10A0319B20A0319B30A0130F4003E
:100510007408B5060030B9000030B8000030B700EC
:100520000030B6002F082E042D042C040319992A3C
:100530009A2ADB2AB401B40AA82A0130AC35AD0DE1
:10054000AE0DAF0D890B9E2A0130F4007408B4077C
:10055000AF1FAB2AAC2A9D2A0130B635B70DB80DB6
:10056000B90D890BAD2A2F083302031DC12A2E08AD
:100570003202031DC12A2D083102031DC12A2C0895
:100580003002031CC42AC52ACE2A2C08B0022D082A
:10059000B13B2E08B23B2F08B33B36140130AF36C7
:1005A000AE0CAD0CAC0C890BCF2A0130B402031D8C
:1005B000DA2ADB2AAC2A35080319DF2AE02AEB2ADB
:1005C000B609B709B809B909B60A0319B70A031970
:1005D000B80A0319B90A3908AF003808AE0037085D
:1005E000AD003608AC0008002000CA006A2B0130BC
:1005F0008631A326823120002108C9002008C800C6
:100600004908BB004808BA008431F4248231200034
:100610004A08C6000230C635FF3E031D0B2B463587
:10062000A43E860087013A08C03F3B08C13F3C0812
:10063000C23F3D08C33F4A08C6000230C635FF3EF0
:10064000031D1E2B4635A33E86008701FF30810027
:100650007D2B0A308631A326823120002108C90073
:100660002008C8004908BB004808BA008431F424B7
:10067000823120004A08C6000230C635FF3E031D05
:100680003D2B4635A43E860087013A08C03F3B0813
:10069000C13F3C08C23F3D08C33F00308631A3261E
:1006A000823120002108C9002008C8004A08C6007D
:1006B0000230C635FF3E031D592B4635A33E86004A
:1006C00087014908BB004808BA008531EF2582310F
:1006D00081007D2B4A08C600C7014708003A03196C
:1006E000722B7D2B4608003A03197D2B013A031922
:1006F000F72A033A0319292B7D2B08002000AC00B0
:100700002C08860087010108A400A501A601A70105
:100710001830A435A50DA60DA70D890B892B270828
:10072000AB002608AA002508A9002408A8002C0A66
:10073000860087010108A400A501A601A7011030C9
:10074000A435A50DA60DA70D890BA02B2408A80480
:100750002508A9042608AA042708AB042C08023E91
:10076000860087010108A400A501A601A7010830A1
:10077000A435A50DA60DA70D890BB82B2408A80438
:100780002508A9042608AA042708AB042C08033E60
:10079000860087010108A8042B08A3002A08A200EC
:1007A0002908A1002808A000080020003A08C0007D
:1007B0003B08C100C201C301FF30AF00FF30AE00F3
:1007C000A030AD000030AC004308A3004208A200F6
:1007D0004108A1004008A000FF30A700FF30A6009C
:1007E0009C30A500CE30A40087311727833120002C
:1007F0002308B3002208B2002108B1002008B0008D
:10080000823164228331A0302000BC000030BD0062
:100810000030BE000030BF002C08BC022D08BD3BDC
:100820002E08BE3B2F08BF3B3F08C7003E08C6004E
:100830003D08C5003C08C4004508BB004408BA0098
:10084000080022008C0160308D008E013F302100B5
:100850008C00F0308D003B308E00173023008C0070
:1008600010308D000D308E002C3024008C00E030D4
:100870008D00F7308E002100951325008C018D012D
:100880008E01373026008C00F0308D00FF308E0056
:100890003F3027008C00F0308D00FF308E0011308B
:1008A0003C00A40006303D00A2000E303C00A00039
:1008B00010303D009E000D303C00A10011303D0085
:1008C0009D002700910192019301940195019601E9
:1008D00097019801990108002000240886008701EB
:1008E00020088100240A860087012008A50021082D
:1008F000A6002208A7002308A8000830A836A70CE5
:10090000A60CA50C890B7E2C250881002408023E2C
:10091000860087012008A5002108A6002208A7005C
:100920002308A8001030A836A70CA60CA50C890B2C
:10093000932C250881002408033E860087012008A7
:10094000A5002108A6002208A7002308A800183047
:10095000A836A70CA60CA50C890BA82C250881008D
:1009600008008C31E72484318D3177258431003AB9
:100970000319BB2CBC2CCA2C8D314B258431003A79
:100980000319C32CC42CCA2C05302000DD00013013
:10099000DC00DF2C8D3130258431003A0319D12C55
:1009A000D22CDF2C8D314B258431003A0319D92C00
:1009B000DA2CDF2C05302000DD000230DC002000C6
:1009C0005D08F200F301F235F30D12307207840076
:1009D0000830733D80388500013F8A00003F0A00DF
:1009E00084312000DD00080020003A08BE003B08EA
:1009F000BF00C001C1010030AF000030AE002830A0
:100A0000AD000030AC004108A3004008A2003F0840
:100A1000A1003E08A0000030A7000030A600013071
:100A2000A500AE30A40087311727843120002308A9
:100A3000B3002208B2002108B1002008B0008231C2
:100A40006422843120002F08C5002E08C4002D0820
:100A5000C3002C08C2004508BD004408BC00430880
:100A6000BB004208BA0008002000B8000130B802FC
:100A70003808B1000130B135FF3E031D3B2D313543
:100A8000043EB7003808B3003008A3002F08A200C6
:100A90002E08A1002D08A0003330A40084316C245E
:100AA000853120006408B100B2013108A00032088D
:100AB000A1003730A2000130A3000030A4008E3125
:100AC000C626853120006408B100B2013108A000BB
:100AD0003208A1003330A2000430A3000030A4008B
:100AE0008E31C626853108002000B3010030B200E7
:100AF0000030B1000030B0000030AF006408AD003D
:100B0000AE012D08A0002E08A1003330A200013054
:100B1000A3000030A4008E31C62685312000640871
:100B2000AD00AE012D08A0002E08A1002F30A200BC
:100B30000430A3000030A4008731DC278531003A5F
:100B40000319A32DA42DB12D2F3083317E238531A0
:100B500020002308E9002208E8002108E700200817
:100B6000E60008002000CD00BB2D0330CC00CE2DC8
:100B70000730CC00CE2D4D08C800C9014908003A05
:100B80000319C32DCE2D4808003A0319CE2D013A82
:100B90000319B52D033A0319B82DCE2D4C08863113
:100BA000A326853120002108CB002008CA004B086D
:100BB000BB004A08BA008331D523853120004D0897
:100BC000C8000230C835FF3E031DE22D4835A13E66
:100BD000860087013A08C03F3B08C13F080020005B
:100BE0003A08BC003B08BD00BE01BF010030AF00A9
:100BF0000030AE00A030AD000030AC003F08A300D4
:100C00003E08A2003D08A1003C08A0000030A7005B
:100C10000030A6003730A500EF30A4008731172739
:100C2000853120002308B3002208B2002108B1005A
:100C30002008B000823164228531223020002C0748
:100C4000C00000302D3DC10000302E3DC2000030FC
:100C50002F3DC300400808002000A400A30101307C
:100C60008E3130268631200024088E3130268631A0
:100C70000B3020002406031D3E2E3F2E472E200859
:100C80008600870101088E3130268631672E2108C3
:100C9000031D4B2E4C2E4D2E632E200886008701FF
:100CA00001088E3130268631200020088600870119
:100CB0000108A2002208A3070130A2002208A00711
:100CC0000130A102472E23088E31302686310800DC
:100CD000F500802E7408031D6E2E6F2E722E2200DA
:100CE0008E17942E22008E13942E7408031D792ED5
:100CF0007A2E7D2E22000E17942E22000E13942E93
:100D000075082000A000A1012108003A0319892ECE
:100D1000942E2008003A0319942E013A03196A2EE2
:100D2000033A0319752E942E75082000A000023096
:100D3000A035FF3E031D982E2035A03E860087017A
:100D40007408810008002000A400A701A8018C31CC
:100D5000FC248631200024088D31D32586312000E3
:100D6000A9018D318C258631003A0319B82EB92E90
:100D7000C12E8D315125863174082000A7077508D2
:100D8000A83D01302000A2002208A9072030290236
:100D9000031CCB2ECC2EB12E2808A3002708A200BE
:100DA0000530A336A20C890BD12E2208A5002308FA
:100DB000A6002608A1002508A00008000430F100C4
:100DC0008D310B258631003A0319E72EE82E122FBC
:100DD000200059085A040319EE2EEF2EFF2E580852
:100DE000860087018C31ED24863181000130F000CE
:100DF00070082000D8070130D9020030DA3B5908CA
:100E00005A040319042F052F092F8D310725863128
:100E1000152F8C31F32486318D310F258631073023
:100E2000F100152F8C31F024863171080800003054
:100E30002000AB000030AA000030A9000030A8005C
:100E4000201C232F242F2C2F2408A8072508A93D78
:100E50002608AA3D2708AB3D0130A435A50DA60DF7
:100E6000A70D890B2D2F0130A336A20CA10CA00CCD
:100E7000890B342F2308220421042004031D412F51
:100E8000422F202F2B08A3002A08A2002908A10026
:100E90002808A00008002000B701B70A3008A30006
:100EA0002F08A2002E08A1002D08A0003330A400B6
:100EB00084316C24873120006408B100B20131080C
:100EC000A0003208A1003730A2000130A30000309A
:100ED000A4008E31C626873120006408B100B2011B
:100EE0003108A0003208A1003330A2000430A30072
:100EF0000030A4008E31C62687310800A9340E3494
:100F0000003400347C340F3423340D3435340D3444
:100F100011340E3400340034003400340034003412
:100F20000034003400340034003400340034003421
:100F30000034003400340034003400340034003411
:100F4000003400340034003400340034BD340D3437
:100F5000EB340D340034003400340034FF30200012
:100F6000A700A8016408A500A6012508A00026087E
:100F7000A1002730A2000130A3000030A4008E3170
:100F8000C626873120006408A500A6012508A00018
:100F90002608A1002830A2000130A3000030A400E0
:100FA0008731DC278731003A0319D72FD82FDB2F61
:100FB00020002808E5000800F5018E312026873141
:100FC000003A031DE42FE52FFC2F01302000D20052
:100FD0002108D4002008D300DB012208D80024080F
:100FE000DA002308D900D501D601D701DC018D3103
:100FF00085258731F501F50A750808007B340E3424
:1010000000340034C6340E34DC3407340034003489
:10101000003400340034003420340E34F7340D34FE
:101020000034003413340D349A340D3469340D34E3
:10103000A6340F34DE3406343F340D3445340D34D9
:08104000A2340D3470340D34AC
:1019C6000800200091110800200090110800240052
:1019D60016150800240011080800240096150800B2
:1019E60024009610080024009614080024001614FB
:1019F600080021009D140800240095129516080081
:101A060024009513151308002400961216160800D4
:101A1600240014080139080024009616161608003A
:101A26002000D201083008008E31E4268D310800EE
:101A36008431B1248D31080023001D121D160800C3
:101A4600740823009A0008002100901591150800DB
:101A5600F00070082400910008002400140E890C80
:101A6600013908002000100E890C0139080075089C
:101A7600F9007408F80008008D31A2258D31F000B8
:101A8600700808008D3170258D31F000700808004F
:101A96002400160E890C890C0139080021001C0847
:101AA600F5001B08F400080075082000EC00740817
:101AB600EB000800640080010131890B5E2D0034C3
:101AC600FE0012001E00FE0B642D0034200053356C
:101AD6008D312B258D31033008008C31FF248D315B
:101AE6002000D2010030080003102400941E0314C5
:101AF6000030093D08008C31F9248D310230200078
:101B0600DD0008008C31F9248D3101302000DD0024
:101B16000800031021009D1C03140030093D080035
:101B260051340034003400340034003400340314DB
:101B36002000530D8D312B258D31043008008C315A
:101B4600EA248D318E3141268D31003008007A30FD
:101B5600210099002200960121009801080020002A
:101B6600A5002530A000A101A10A0B3086312C2644
:101B76008D310800740875040319C22DC32DC72DB5
:101B86007508F7007408F60008008B102100151779
:101B96000030F4000030F5008D313A258D31080013
:101BA600F5007508F400F40DF40D21001D08740607
:101BB600833974069D0008002000220886008701EC
:101BC60020088100220A860087012108810008007A
:101BD600740875040319F02DF12DF62D75082000F3
:101BE600DF007408DE000800740875040319FC2D74
:101BF600FD2D022E75082000E3007408E20008009F
:101C0600200010136B086C0403190A2E0B2E102EDD
:101C16006C088A006B080A008E310800F401200067
:101C2600101E162E172E1E2E23009E1E1B2E1C2E39
:101C36001E2EF401F40A74080800F401F40A2000C8
:101C46005208031D272E282E2E2E240094192C2EE2
:101C56002D2E2E2EF40174080800F500332E0000F8
:101C66008E3111268E31003A03193A2E3B2E322E32
:101C76007508F4008D3123258E3108002000D2012D
:101C86000030D400FF30D300D501D801DD018C31FE
:101C9600E7248E318C31E4248E318D3103258E314B
:101CA60008008D31AA258E31843121248E318E3162
:101CB60067268E318E31A9268E318E317B268E3166
:101CC6008D31C8258E310800603021009E009B01B1
:101CD6009C019F0101309D0020001013E330F400A9
:101CE6000C30F5008D3157258E3121001017080074
:101CF6008030240094000830950096019701273023
:101D060092008D3127258E310230F4000030F50027
:101D16008D31F7258E3124009516080001340034E4
:101D2600003400340034003400340034013400340C
:101D360000340034003400340034003401340034FC
:101D460000340034003400340034003448302300BA
:101D56009F0090309D0026309E00A0309B000130F1
:101D66009C000330F4000030F5008D31BD258E3126
:101D76001F30F4000D30F5008D31EB258E3120003B
:101D8600E001E10108008E3120268E31003A031D64
:101D9600CD2ECE2EE32E01302000D2002108D40015
:101DA6002008D300DB012208D5002408D700230829
:101DB600D600D801D901DA01DC018D317E258E31BC
:101DC600080006302000DD000330DC008C31E424FE
:101DD6008E3120005D08F200F301F235F30D12306A
:101DE600720784000830733D80388500013F8A0001
:101DF600003F0A008E312000DD0063088A00620879
:101E06000A008F3108002000A700FE30A8006408F1
:101E1600A500A6012508A0002608A1002830A200DA
:101E26000130A3000030A4008E31C6268F31200079
:101E36006408A500A6012508A0002608A1002730F1
:101E4600A2000130A3000030A4008E31C6268F31D7
:101E560008002000A7000230A8002708A90064088F
:101E6600A500A6012508A0002608A1002830A2008A
:101E76000130A3000030A4008E31C6268F31200029
:101E86006408A500A6012508A0002608A10029309F
:101E9600A2000130A3000030A4008E31C6268F3187
:101EA60008008E3154268F318B170B178D3135254F
:101EB6008F31003A0319602F612F782F8F317C27DD
:101EC6008F312000D10051088131AC218F31003A89
:101ED60003196E2F6F2F592FCA302000CE00210014
:101EE6003908803168208F31592F0000592F8031F1
:101EF60036282000E001E10123009D1C832F842F5A
:101F0600912F200060155E085F0403198B2F8C2F1C
:101F1600912F5F088A005E080A008F3123001D1D7D
:101F2600952F962FA32F2000E01476087704031927
:101F36009D2F9E2FA32F77088A0076080A008F31DF
:101F46002300190808002000560857040319AC2F6F
:101F5600AD2FC02F0130D6020030D73B0330523EA2
:101F660086008701403F84008501810A00088D3183
:101F76002B258F310330F100D02F5B080319C42FB6
:101F8600C52FCC2FDB018C31F6248F31F101F10AFC
:101F9600D02F8D31A2258F31F10071080800FE3057
:101FA6002000A700A8016408A500A6012508A00036
:101FB6002608A1002730A2000130A3000030A400AB
:101FC6008E31C6268F3120006408A500A60125089B
:101FD600A0002608A1002830A2000130A30000308E
:101FE600A4008731DC278F31003A0319FB2FFC2F21
:0A1FF600FF2F20002808EA00080071
:020000040001F9
:06000E00FC3FFF3E9F3F96
:00000001FF
